:020000040000FA
:0A0006002628FF0003088301FE0016
:100010000408FD000A08FC008A018C1C12288C10C0
:10002000382312287C088A007D0884007E0883001B
:10003000FF0E7F0E09004E3092008316F9309200B9
:100040008C140B1783128C101215080000226822E2
:100050005D22062307221B2010228B171822412223
:080060005122FF2256212E2837
:10020000AE0001309C22C0309C222E081021003A02
:1002100003190D299A22AE0A052902309C220800F2
:100220008A010A14820743346C34613476346534AD
:100230003F3400344534723472346F3472340034D5
:10024000433461346D34623469346F342E34003495
:10025000413462347234653400348A010A148207EE
:1002600000340134033400340234003400340034E8
:1002700004340034003400340034003400340034DA
:1002800004348A010A148A1082070034413442344B
:10029000433444343334363439340234323435342C
:1002A00038343034313434343734013444088A013A
:1002B0000A1482075C2963294923820708006A29F6
:1002C00008006D29080049238207080008006F29EB
:1002D000722976291422C40A080006230800C403E0
:1002E0001622080016220623C40308001F230E232B
:0202F000080004
:100400008316031788018901831203130800013042
:10041000C4000030C20001309C2202309C2208003F
:1004200087018316071083120714080007100800BD
:10043000B00100308600F03006060319292AAF010A
:10044000AF0A07302D220B302D220D302D220E3019
:100450002D2200308600300808008600B008031DF9
:100460000800061E3E2AAF0A861E3E2AAF0A061F55
:100470003E2AAF0A861F3E2AAF0A08002F08B000A6
:100480000800AF0034060319492A2F08B400B3014D
:1004900000341030330203194F2AB30A00342F08F6
:1004A0000800003803195A2A03153518003435148A
:1004B000031108003510003908008316F03086005B
:1004C0008113831200308600B401B501B301080026
:1004D0008316F03088050813881208128312081357
:1004E00088120812F0308805033088041430C022C6
:1004F000081608120530C022081608120130C02262
:10050000081608120530C022F030023088040816A0
:1005100008120530C02228309C220530C022083045
:100520009C220C309C2206309C2201309C2264309C
:10053000C022080008179E2A08139E2A8812AF00BE
:10054000F03088052F0E0F39880408160812F03095
:1005500088052F080F39880408160812CA220800D7
:10056000DE22081388160816081208080739AF009B
:10057000AF0E0816081208080F392F04E4220800ED
:10058000AF00FF30B00000000000B00BC32AAF0B7B
:10059000C12A0800C830AF00DE22081388160816EA
:1005A000081208080816081208390319DC2AAF0BCC
:1005B000CF2AAF01E4220134E422003483160F3045
:1005C00008048800831208008316F03008058800AC
:1005D00083122F0808000D30C000C0030319080063
:1005E0002730A7002030A800A70BF72AA80BF42A71
:1005F000ED2AAF0002309C222F089A220800AF009B
:100600002D21C2002F084121C3000800AA01AB011F
:10061000AC01AD01C001C1010E230800C0309C2215
:100620002D08303E9A222C08303E9A223A309A22E7
:100630002B08303E9A222A08303E9A220800AA0A45
:10064000F6302A07031C0800AA01AB0AFA302B0770
:10065000031C0800AB01AC0AF6302C07031C080091
:10066000AC01AD0AFA302D07031C0800AD010800EB
:10067000C00AE7304007031C08004114C00108000D
:10068000411C08000000000000001F230E23411041
:1006900008004208031D0800411C003441100434C6
:00000001FF
