:020000040000FA
:0A000600042833228A227F220A22F6
:0E00100000223A22632273222123562109285E
:10020000AE000130BE22C030BE222E081021003ABE
:1002100003190D29BC22AE0A05290230BE220800AE
:100220008A010A14820743346C34613476346534AD
:100230003F3400344534723472346F3472340034D5
:10024000433461346D34623469346F342E34003495
:10025000413462347234653400348A010A148207EE
:1002600000340234003403340534013401340134E1
:1002700000340134013401340134013401340134D7
:1002800004348A010A148A1082070034413442344B
:10029000433444343334363439340234323435342C
:1002A00038343034313434343734013444088A013A
:1002B0000A14820763296B297229792980298729E1
:1002C0008E2995299C29420882070800A329080045
:1002D0000800002A6A29420882070800A3290800AA
:1002E0000800002A420882070800A3290800080025
:1002F000002A420882070800A32908000800002AF3
:100300004208820708000800A829B729002A4208E5
:1003100082070800C52908000800002A4208820751
:100320000800C52908000800002A420882070800C2
:10033000C52908000800002A420882070800CA29C7
:1003400008000800002A10222A30BC22C40A080033
:100350001922003E031DB229AD29153000210D23BD
:1003600000220800073000210D2300220800192276
:10037000003E031DC029BC290D300021C40A08001D
:10038000073000210D23002208001022C308BC22E0
:10039000C40A08001022C308BC222A220D230D2300
:0403A000002208002F
:100400000030C400C2000130BE220230BE220030E3
:10041000002108003030CA00CB00CC00CD0008001D
:100420004708C6004808C7004908C8004308C90073
:10043000080046084A02031DFF3447084B02031D0B
:10044000FF3448084C02031DFF3449084D02031DC8
:10045000FF3400344608CA004708CB004808CC00E7
:100460004908CD000800831603178801890183120B
:1004700003130800B00100308600F03006060319AF
:100480004B2AAF01AF0A07304F220B304F220D30FD
:100490004F220E304F2200308600300808008600C0
:1004A000B008031D0800061E602AAF0A861E602AD7
:1004B000AF0A061F602AAF0A861F602AAF0A08002B
:1004C0002F08B0000800AF00340603196B2A2F086C
:1004D000B400B3010034103033020319712AB30A97
:1004E00000342F080800003803197C2A031535183A
:1004F0000034351403110800351000390800831644
:10050000F03086008113831200308600B401B501FB
:10051000B30108008316F03088050813881208120A
:100520008312081388120812F030880503308804FB
:100530001430E222081608120530E22208160812CA
:100540000130E222081608120530E222F0300230B3
:100550008804081608120530E2222830BE22053031
:10056000E2220830BE220C30BE220630BE2201300C
:10057000BE226430E22208000817C02A0813C02AED
:100580008812AF00F03088052F0E0F398804081646
:100590000812F03088052F080F3988040816081251
:1005A000EC22080000230813881608160812080811
:1005B0000739AF00AF0E0816081208080F392F04CC
:1005C00006230800AF00FF30B00000000000B00BB1
:1005D000E52AAF0BE32A0800C830AF000023081358
:1005E0008816081608120808081608120839031990
:1005F000FE2AAF0BF12AAF01062301340623003493
:1006000083160F3008048800831208008316F03028
:100610000805880083122F0808000D30C000C003B1
:10062000031908002730A7002030A800A70B192BBA
:10063000A80B162B0F2BAF000230BE222F08BC22B6
:100640000800AF002D21C2002F084121C30008007F
:00000001FF
